{
  "_format": "hh-sol-artifact-1",
  "contractName": "Crowdfunding",
  "sourceName": "contracts/Crowdfunding.sol",
  "abi": [
    {
      "inputs": [
        {
          "internalType": "uint256",
          "name": "_index",
          "type": "uint256"
        }
      ],
      "name": "claimFund",
      "outputs": [],
      "stateMutability": "nonpayable",
      "type": "function"
    },
    {
      "inputs": [
        {
          "internalType": "uint256",
          "name": "_index",
          "type": "uint256"
        }
      ],
      "name": "claimRefund",
      "outputs": [],
      "stateMutability": "nonpayable",
      "type": "function"
    },
    {
      "inputs": [
        {
          "internalType": "string",
          "name": "_name",
          "type": "string"
        },
        {
          "internalType": "string",
          "name": "_desc",
          "type": "string"
        },
        {
          "internalType": "string",
          "name": "_creatorName",
          "type": "string"
        },
        {
          "internalType": "string",
          "name": "_projectLink",
          "type": "string"
        },
        {
          "internalType": "string",
          "name": "_cid",
          "type": "string"
        },
        {
          "internalType": "uint256",
          "name": "_fundingGoal",
          "type": "uint256"
        },
        {
          "internalType": "uint256",
          "name": "_duration",
          "type": "uint256"
        },
        {
          "internalType": "enum Crowdfunding.Category",
          "name": "_category",
          "type": "uint8"
        },
        {
          "internalType": "enum Crowdfunding.RefundPolicy",
          "name": "_refundPolicy",
          "type": "uint8"
        }
      ],
      "name": "createNewProject",
      "outputs": [],
      "stateMutability": "nonpayable",
      "type": "function"
    },
    {
      "inputs": [
        {
          "internalType": "uint256",
          "name": "_index",
          "type": "uint256"
        }
      ],
      "name": "fundProject",
      "outputs": [],
      "stateMutability": "payable",
      "type": "function"
    },
    {
      "inputs": [],
      "name": "getAllProjectsDetail",
      "outputs": [
        {
          "components": [
            {
              "internalType": "string",
              "name": "projectName",
              "type": "string"
            },
            {
              "internalType": "string",
              "name": "projectDescription",
              "type": "string"
            },
            {
              "internalType": "string",
              "name": "creatorName",
              "type": "string"
            },
            {
              "internalType": "string",
              "name": "cid",
              "type": "string"
            },
            {
              "internalType": "uint256",
              "name": "fundingGoal",
              "type": "uint256"
            },
            {
              "internalType": "uint256",
              "name": "amountRaised",
              "type": "uint256"
            },
            {
              "internalType": "uint256",
              "name": "totalContributors",
              "type": "uint256"
            },
            {
              "internalType": "uint256",
              "name": "creationTime",
              "type": "uint256"
            },
            {
              "internalType": "uint256",
              "name": "duration",
              "type": "uint256"
            },
            {
              "internalType": "enum Crowdfunding.Category",
              "name": "category",
              "type": "uint8"
            }
          ],
          "internalType": "struct Crowdfunding.ProjectMetadata[]",
          "name": "allProjects",
          "type": "tuple[]"
        }
      ],
      "stateMutability": "view",
      "type": "function"
    },
    {
      "inputs": [
        {
          "internalType": "address",
          "name": "creator",
          "type": "address"
        }
      ],
      "name": "getCreatorProjects",
      "outputs": [
        {
          "internalType": "uint256[]",
          "name": "createdProjects",
          "type": "uint256[]"
        }
      ],
      "stateMutability": "view",
      "type": "function"
    },
    {
      "inputs": [
        {
          "internalType": "uint256",
          "name": "_index",
          "type": "uint256"
        }
      ],
      "name": "getProject",
      "outputs": [
        {
          "components": [
            {
              "internalType": "string",
              "name": "projectName",
              "type": "string"
            },
            {
              "internalType": "string",
              "name": "projectDescription",
              "type": "string"
            },
            {
              "internalType": "string",
              "name": "creatorName",
              "type": "string"
            },
            {
              "internalType": "string",
              "name": "projectLink",
              "type": "string"
            },
            {
              "internalType": "string",
              "name": "cid",
              "type": "string"
            },
            {
              "internalType": "uint256",
              "name": "fundingGoal",
              "type": "uint256"
            },
            {
              "internalType": "uint256",
              "name": "duration",
              "type": "uint256"
            },
            {
              "internalType": "uint256",
              "name": "creationTime",
              "type": "uint256"
            },
            {
              "internalType": "uint256",
              "name": "amountRaised",
              "type": "uint256"
            },
            {
              "internalType": "address",
              "name": "creatorAddress",
              "type": "address"
            },
            {
              "internalType": "enum Crowdfunding.Category",
              "name": "category",
              "type": "uint8"
            },
            {
              "internalType": "enum Crowdfunding.RefundPolicy",
              "name": "refundPolicy",
              "type": "uint8"
            },
            {
              "internalType": "address[]",
              "name": "contributors",
              "type": "address[]"
            },
            {
              "internalType": "uint256[]",
              "name": "amount",
              "type": "uint256[]"
            },
            {
              "internalType": "bool[]",
              "name": "refundClaimed",
              "type": "bool[]"
            },
            {
              "internalType": "bool",
              "name": "claimedAmount",
              "type": "bool"
            }
          ],
          "internalType": "struct Crowdfunding.Project",
          "name": "project",
          "type": "tuple"
        }
      ],
      "stateMutability": "view",
      "type": "function"
    },
    {
      "inputs": [
        {
          "internalType": "uint256[]",
          "name": "_indexList",
          "type": "uint256[]"
        }
      ],
      "name": "getProjectsDetail",
      "outputs": [
        {
          "components": [
            {
              "internalType": "string",
              "name": "projectName",
              "type": "string"
            },
            {
              "internalType": "string",
              "name": "projectDescription",
              "type": "string"
            },
            {
              "internalType": "string",
              "name": "creatorName",
              "type": "string"
            },
            {
              "internalType": "string",
              "name": "cid",
              "type": "string"
            },
            {
              "internalType": "uint256",
              "name": "fundingGoal",
              "type": "uint256"
            },
            {
              "internalType": "uint256",
              "name": "amountRaised",
              "type": "uint256"
            },
            {
              "internalType": "uint256",
              "name": "totalContributors",
              "type": "uint256"
            },
            {
              "internalType": "uint256",
              "name": "creationTime",
              "type": "uint256"
            },
            {
              "internalType": "uint256",
              "name": "duration",
              "type": "uint256"
            },
            {
              "internalType": "enum Crowdfunding.Category",
              "name": "category",
              "type": "uint8"
            }
          ],
          "internalType": "struct Crowdfunding.ProjectMetadata[]",
          "name": "projectsList",
          "type": "tuple[]"
        }
      ],
      "stateMutability": "view",
      "type": "function"
    },
    {
      "inputs": [
        {
          "internalType": "address",
          "name": "contributor",
          "type": "address"
        }
      ],
      "name": "getUserFundings",
      "outputs": [
        {
          "components": [
            {
              "internalType": "uint256",
              "name": "projectIndex",
              "type": "uint256"
            },
            {
              "internalType": "uint256",
              "name": "totalAmount",
              "type": "uint256"
            }
          ],
          "internalType": "struct Crowdfunding.Funded[]",
          "name": "fundedProjects",
          "type": "tuple[]"
        }
      ],
      "stateMutability": "view",
      "type": "function"
    }
  ],
  "bytecode": "0x608060405234801561001057600080fd5b50613191806100206000396000f3fe6080604052600436106100865760003560e01c80636c563abe116100595780636c563abe14610125578063921fd11c1461013857806396e3de9714610158578063ce50cdb314610185578063f0f3f2c8146101a557600080fd5b80630439e24d1461008b5780631739d15b146100c157806331c7364f146100e35780635b7baf6414610105575b600080fd5b34801561009757600080fd5b506100ab6100a63660046129f9565b6101d2565b6040516100b89190612e50565b60405180910390f35b3480156100cd57600080fd5b506100d661023e565b6040516100b89190612d49565b3480156100ef57600080fd5b506101036100fe366004612bd0565b610782565b005b34801561011157600080fd5b50610103610120366004612bd0565b610b4c565b610103610133366004612bd0565b610f8c565b34801561014457600080fd5b50610103610153366004612acf565b611158565b34801561016457600080fd5b506101786101733660046129f9565b6114b3565b6040516100b89190612cfa565b34801561019157600080fd5b506100d66101a0366004612a27565b61153c565b3480156101b157600080fd5b506101c56101c0366004612bd0565b611c15565b6040516100b89190612ec0565b6001600160a01b03811660009081526001602090815260409182902080548351818402810184019094528084526060939283018282801561023257602002820191906000526020600020905b81548152602001906001019080831161021e575b50505050509050919050565b600080546060919067ffffffffffffffff81111561026c57634e487b7160e01b600052604160045260246000fd5b6040519080825280602002602001820160405280156102a557816020015b61029261268b565b81526020019060019003908161028a5790505b50905060005b60005481101561077c57604051806101400160405280600083815481106102e257634e487b7160e01b600052603260045260246000fd5b90600052602060002090600e020160000180546102fe906130c9565b80601f016020809104026020016040519081016040528092919081815260200182805461032a906130c9565b80156103775780601f1061034c57610100808354040283529160200191610377565b820191906000526020600020905b81548152906001019060200180831161035a57829003601f168201915b50505050508152602001600083815481106103a257634e487b7160e01b600052603260045260246000fd5b90600052602060002090600e020160010180546103be906130c9565b80601f01602080910402602001604051908101604052809291908181526020018280546103ea906130c9565b80156104375780601f1061040c57610100808354040283529160200191610437565b820191906000526020600020905b81548152906001019060200180831161041a57829003601f168201915b505050505081526020016000838154811061046257634e487b7160e01b600052603260045260246000fd5b90600052602060002090600e0201600201805461047e906130c9565b80601f01602080910402602001604051908101604052809291908181526020018280546104aa906130c9565b80156104f75780601f106104cc576101008083540402835291602001916104f7565b820191906000526020600020905b8154815290600101906020018083116104da57829003601f168201915b505050505081526020016000838154811061052257634e487b7160e01b600052603260045260246000fd5b90600052602060002090600e0201600401805461053e906130c9565b80601f016020809104026020016040519081016040528092919081815260200182805461056a906130c9565b80156105b75780601f1061058c576101008083540402835291602001916105b7565b820191906000526020600020905b81548152906001019060200180831161059a57829003601f168201915b50505050508152602001600083815481106105e257634e487b7160e01b600052603260045260246000fd5b90600052602060002090600e02016005015481526020016000838154811061061a57634e487b7160e01b600052603260045260246000fd5b90600052602060002090600e02016008015481526020016000838154811061065257634e487b7160e01b600052603260045260246000fd5b90600052602060002090600e0201600a018054905081526020016000838154811061068d57634e487b7160e01b600052603260045260246000fd5b90600052602060002090600e0201600701548152602001600083815481106106c557634e487b7160e01b600052603260045260246000fd5b90600052602060002090600e0201600601548152602001600083815481106106fd57634e487b7160e01b600052603260045260246000fd5b90600052602060002090600e020160090160149054906101000a900460ff16600381111561073b57634e487b7160e01b600052602160045260246000fd5b81525082828151811061075e57634e487b7160e01b600052603260045260246000fd5b60200260200101819052508080610774906130fe565b9150506102ab565b50919050565b600054819081106107ae5760405162461bcd60e51b81526004016107a590612e94565b60405180910390fd5b336001600160a01b0316600083815481106107d957634e487b7160e01b600052603260045260246000fd5b600091825260209091206009600e9092020101546001600160a01b0316146108435760405162461bcd60e51b815260206004820152601960248201527f596f7520617265206e6f742050726f6a656374204f776e65720000000000000060448201526064016107a5565b426000838154811061086557634e487b7160e01b600052603260045260246000fd5b90600052602060002090600e0201600701546000848154811061089857634e487b7160e01b600052603260045260246000fd5b90600052602060002090600e0201600601546108b4919061307b565b106109015760405162461bcd60e51b815260206004820181905260248201527f50726f6a6563742046756e64696e672054696d65204e6f74204578706972656460448201526064016107a5565b60016000838154811061092457634e487b7160e01b600052603260045260246000fd5b90600052602060002090600e020160090160159054906101000a900460ff16600181111561096257634e487b7160e01b600052602160045260246000fd5b14806109d257506000828154811061098a57634e487b7160e01b600052603260045260246000fd5b90600052602060002090600e020160050154600083815481106109bd57634e487b7160e01b600052603260045260246000fd5b90600052602060002090600e02016008015410155b610a195760405162461bcd60e51b8152602060048201526018602482015277119d5b991a5b99c819dbd85b081b9bdd081c995858da195960421b60448201526064016107a5565b60008281548110610a3a57634e487b7160e01b600052603260045260246000fd5b60009182526020909120600d600e90920201015460ff1615610a9e5760405162461bcd60e51b815260206004820152601c60248201527f416c726561647920636c61696d6564207261697365642066756e64730000000060448201526064016107a5565b600160008381548110610ac157634e487b7160e01b600052603260045260246000fd5b600091825260208220600e9190910201600d01805460ff191692151592909217909155805433916108fc9185908110610b0a57634e487b7160e01b600052603260045260246000fd5b90600052602060002090600e0201600801549081150290604051600060405180830381858888f19350505050158015610b47573d6000803e3d6000fd5b505050565b60005481908110610b6f5760405162461bcd60e51b81526004016107a590612e94565b4260008381548110610b9157634e487b7160e01b600052603260045260246000fd5b90600052602060002090600e02016007015460008481548110610bc457634e487b7160e01b600052603260045260246000fd5b90600052602060002090600e020160060154610be0919061307b565b10610c2d5760405162461bcd60e51b815260206004820181905260248201527f50726f6a6563742046756e64696e672054696d65204e6f74204578706972656460448201526064016107a5565b6000808381548110610c4f57634e487b7160e01b600052603260045260246000fd5b90600052602060002090600e020160090160159054906101000a900460ff166001811115610c8d57634e487b7160e01b600052602160045260246000fd5b148015610cfd575060008281548110610cb657634e487b7160e01b600052603260045260246000fd5b90600052602060002090600e02016005015460008381548110610ce957634e487b7160e01b600052603260045260246000fd5b90600052602060002090600e020160080154105b610d445760405162461bcd60e51b8152602060048201526018602482015277119d5b991a5b99c819dbd85b081b9bdd081c995858da195960421b60448201526064016107a5565b6000610d4f83612181565b9050806000191415610db25760405162461bcd60e51b815260206004820152602660248201527f596f7520646964206e6f7420636f6e7472696275746520746f207468697320706044820152651c9bda9958dd60d21b60648201526084016107a5565b600081905060008481548110610dd857634e487b7160e01b600052603260045260246000fd5b90600052602060002090600e0201600c018181548110610e0857634e487b7160e01b600052603260045260246000fd5b90600052602060002090602091828204019190069054906101000a900460ff1615610e755760405162461bcd60e51b815260206004820152601d60248201527f416c726561647920636c61696d656420726566756e6420616d6f756e7400000060448201526064016107a5565b600160008581548110610e9857634e487b7160e01b600052603260045260246000fd5b90600052602060002090600e0201600c018281548110610ec857634e487b7160e01b600052603260045260246000fd5b90600052602060002090602091828204019190066101000a81548160ff021916908315150217905550336001600160a01b03166108fc60008681548110610f1f57634e487b7160e01b600052603260045260246000fd5b90600052602060002090600e0201600b018381548110610f4f57634e487b7160e01b600052603260045260246000fd5b90600052602060002001549081150290604051600060405180830381858888f19350505050158015610f85573d6000803e3d6000fd5b5050505050565b60005481908110610faf5760405162461bcd60e51b81526004016107a590612e94565b336001600160a01b031660008381548110610fda57634e487b7160e01b600052603260045260246000fd5b600091825260209091206009600e9092020101546001600160a01b031614156110455760405162461bcd60e51b815260206004820152601960248201527f596f7520617265207468652070726f6a656374206f776e65720000000000000060448201526064016107a5565b426000838154811061106757634e487b7160e01b600052603260045260246000fd5b90600052602060002090600e0201600701546000848154811061109a57634e487b7160e01b600052603260045260246000fd5b90600052602060002090600e0201600601546110b6919061307b565b10156111045760405162461bcd60e51b815260206004820152601c60248201527f50726f6a6563742046756e64696e672054696d6520457870697265640000000060448201526064016107a5565b61110d82612277565b346000838154811061112f57634e487b7160e01b600052603260045260246000fd5b90600052602060002090600e0201600801600082825461114f919061307b565b90915550505050565b60006040518061020001604052808b81526020018a815260200189815260200188815260200187815260200186670de0b6b3a76400006111989190613093565b81526020016111a886603c613093565b8152426020820152600060408201523360608201526080018460038111156111e057634e487b7160e01b600052602160045260246000fd5b815260200183600181111561120557634e487b7160e01b600052602160045260246000fd5b81526020016000604051908082528060200260200182016040528015611235578160200160208202803683370190505b5081526020016000604051908082528060200260200182016040528015611266578160200160208202803683370190505b5081526020016000604051908082528060200260200182016040528015611297578160200160208202803683370190505b508152600060209182018190528354600181018555938152819020825180519394600e02909101926112cc92849201906126fc565b5060208281015180516112e592600185019201906126fc565b50604082015180516113019160028401916020909101906126fc565b506060820151805161131d9160038401916020909101906126fc565b50608082015180516113399160048401916020909101906126fc565b5060a0820151600582015560c0820151600682015560e0820151600782015561010082015160088201556101208201516009820180546001600160a01b039092166001600160a01b0319831681178255610140850151926001600160a81b03191617600160a01b8360038111156113c057634e487b7160e01b600052602160045260246000fd5b021790555061016082015160098201805460ff60a81b1916600160a81b8360018111156113fd57634e487b7160e01b600052602160045260246000fd5b0217905550610180820151805161141e91600a840191602090910190612780565b506101a0820151805161143b91600b8401916020909101906127d5565b506101c0820151805161145891600c84019160209091019061280f565b506101e09190910151600d909101805460ff19169115159190911790553360009081526001602081905260408220915461149291906130b2565b81546001810183556000928352602090922090910155505050505050505050565b6001600160a01b0381166000908152600260209081526040808320805482518185028101850190935280835260609492939192909184015b82821015611531578382906000526020600020906002020160405180604001604052908160008201548152602001600182015481525050815260200190600101906114eb565b505050509050919050565b60606000825167ffffffffffffffff81111561156857634e487b7160e01b600052604160045260246000fd5b6040519080825280602002602001820160405280156115a157816020015b61158e61268b565b8152602001906001900390816115865790505b50905060005b8351811015611c0e5760005484518590839081106115d557634e487b7160e01b600052603260045260246000fd5b60200260200101511015611ac957600084828151811061160557634e487b7160e01b600052603260045260246000fd5b602002602001015190506040518061014001604052806000838154811061163c57634e487b7160e01b600052603260045260246000fd5b90600052602060002090600e02016000018054611658906130c9565b80601f0160208091040260200160405190810160405280929190818152602001828054611684906130c9565b80156116d15780601f106116a6576101008083540402835291602001916116d1565b820191906000526020600020905b8154815290600101906020018083116116b457829003601f168201915b50505050508152602001600083815481106116fc57634e487b7160e01b600052603260045260246000fd5b90600052602060002090600e02016001018054611718906130c9565b80601f0160208091040260200160405190810160405280929190818152602001828054611744906130c9565b80156117915780601f1061176657610100808354040283529160200191611791565b820191906000526020600020905b81548152906001019060200180831161177457829003601f168201915b50505050508152602001600083815481106117bc57634e487b7160e01b600052603260045260246000fd5b90600052602060002090600e020160020180546117d8906130c9565b80601f0160208091040260200160405190810160405280929190818152602001828054611804906130c9565b80156118515780601f1061182657610100808354040283529160200191611851565b820191906000526020600020905b81548152906001019060200180831161183457829003601f168201915b505050505081526020016000838154811061187c57634e487b7160e01b600052603260045260246000fd5b90600052602060002090600e02016004018054611898906130c9565b80601f01602080910402602001604051908101604052809291908181526020018280546118c4906130c9565b80156119115780601f106118e657610100808354040283529160200191611911565b820191906000526020600020905b8154815290600101906020018083116118f457829003601f168201915b505050505081526020016000838154811061193c57634e487b7160e01b600052603260045260246000fd5b90600052602060002090600e02016005015481526020016000838154811061197457634e487b7160e01b600052603260045260246000fd5b90600052602060002090600e0201600801548152602001600083815481106119ac57634e487b7160e01b600052603260045260246000fd5b90600052602060002090600e0201600a01805490508152602001600083815481106119e757634e487b7160e01b600052603260045260246000fd5b90600052602060002090600e020160070154815260200160008381548110611a1f57634e487b7160e01b600052603260045260246000fd5b90600052602060002090600e020160060154815260200160008381548110611a5757634e487b7160e01b600052603260045260246000fd5b90600052602060002090600e020160090160149054906101000a900460ff166003811115611a9557634e487b7160e01b600052602160045260246000fd5b815250838381518110611ab857634e487b7160e01b600052603260045260246000fd5b602002602001018190525050611bfc565b6040518061014001604052806040518060400160405280600f81526020016e125b9d985b1a5908141c9bda9958dd608a1b81525081526020016040518060400160405280600f81526020016e125b9d985b1a5908141c9bda9958dd608a1b81525081526020016040518060400160405280600f81526020016e125b9d985b1a5908141c9bda9958dd608a1b81525081526020016040518060400160405280600f81526020016e125b9d985b1a5908141c9bda9958dd608a1b8152508152602001600081526020016000815260200160008152602001600081526020016000815260200160006003811115611bcd57634e487b7160e01b600052602160045260246000fd5b815250828281518110611bf057634e487b7160e01b600052603260045260246000fd5b60200260200101819052505b80611c06816130fe565b9150506115a7565b5092915050565b611c1d6128af565b60005482908110611c405760405162461bcd60e51b81526004016107a590612e94565b60008381548110611c6157634e487b7160e01b600052603260045260246000fd5b90600052602060002090600e020160405180610200016040529081600082018054611c8b906130c9565b80601f0160208091040260200160405190810160405280929190818152602001828054611cb7906130c9565b8015611d045780601f10611cd957610100808354040283529160200191611d04565b820191906000526020600020905b815481529060010190602001808311611ce757829003601f168201915b50505050508152602001600182018054611d1d906130c9565b80601f0160208091040260200160405190810160405280929190818152602001828054611d49906130c9565b8015611d965780601f10611d6b57610100808354040283529160200191611d96565b820191906000526020600020905b815481529060010190602001808311611d7957829003601f168201915b50505050508152602001600282018054611daf906130c9565b80601f0160208091040260200160405190810160405280929190818152602001828054611ddb906130c9565b8015611e285780601f10611dfd57610100808354040283529160200191611e28565b820191906000526020600020905b815481529060010190602001808311611e0b57829003601f168201915b50505050508152602001600382018054611e41906130c9565b80601f0160208091040260200160405190810160405280929190818152602001828054611e6d906130c9565b8015611eba5780601f10611e8f57610100808354040283529160200191611eba565b820191906000526020600020905b815481529060010190602001808311611e9d57829003601f168201915b50505050508152602001600482018054611ed3906130c9565b80601f0160208091040260200160405190810160405280929190818152602001828054611eff906130c9565b8015611f4c5780601f10611f2157610100808354040283529160200191611f4c565b820191906000526020600020905b815481529060010190602001808311611f2f57829003601f168201915b50505091835250506005820154602082015260068201546040820152600782015460608201526008820154608082015260098201546001600160a01b03811660a083015260c090910190600160a01b900460ff166003811115611fbf57634e487b7160e01b600052602160045260246000fd5b6003811115611fde57634e487b7160e01b600052602160045260246000fd5b81526020016009820160159054906101000a900460ff16600181111561201457634e487b7160e01b600052602160045260246000fd5b600181111561203357634e487b7160e01b600052602160045260246000fd5b8152602001600a820180548060200260200160405190810160405280929190818152602001828054801561209057602002820191906000526020600020905b81546001600160a01b03168152600190910190602001808311612072575b50505050508152602001600b82018054806020026020016040519081016040528092919081815260200182805480156120e857602002820191906000526020600020905b8154815260200190600101908083116120d4575b50505050508152602001600c820180548060200260200160405190810160405280929190818152602001828054801561216057602002820191906000526020600020906000905b825461010083900a900460ff16151581526020600192830181810494850194909303909202910180841161212f5790505b5050509183525050600d919091015460ff1615156020909101529392505050565b60008054829081106121a55760405162461bcd60e51b81526004016107a590612e94565b60001960005b600085815481106121cc57634e487b7160e01b600052603260045260246000fd5b90600052602060002090600e0201600a018054905081101561226f576000858154811061220957634e487b7160e01b600052603260045260246000fd5b90600052602060002090600e0201600a01818154811061223957634e487b7160e01b600052603260045260246000fd5b6000918252602090912001546001600160a01b031633141561225d5780915061226f565b80612267816130fe565b9150506121ab565b509392505050565b6000548190811061229a5760405162461bcd60e51b81526004016107a590612e94565b60005b600083815481106122be57634e487b7160e01b600052603260045260246000fd5b90600052602060002090600e0201600a01805490508110156123dc57336001600160a01b03166000848154811061230557634e487b7160e01b600052603260045260246000fd5b90600052602060002090600e0201600a01828154811061233557634e487b7160e01b600052603260045260246000fd5b6000918252602090912001546001600160a01b031614156123ca57346000848154811061237257634e487b7160e01b600052603260045260246000fd5b90600052602060002090600e0201600b0182815481106123a257634e487b7160e01b600052603260045260246000fd5b9060005260206000200160008282546123bb919061307b565b90915550610b4790508361254c565b806123d4816130fe565b91505061229d565b50600082815481106123fe57634e487b7160e01b600052603260045260246000fd5b60009182526020808320600a600e909302019190910180546001810182559083529082200180546001600160a01b0319163317905580548390811061245357634e487b7160e01b600052603260045260246000fd5b60009182526020808320600b600e90930201919091018054600181018255908352908220349101556000838154811061249c57634e487b7160e01b600052603260045260246000fd5b90600052602060002090600e020160090160159054906101000a900460ff1660018111156124da57634e487b7160e01b600052602160045260246000fd5b141561253f576000828154811061250157634e487b7160e01b600052603260045260246000fd5b60009182526020808320600e92909202909101600c01805460018101825590835291819020908204018054601f9092166101000a60ff021990911690555b6125488261254c565b5050565b6000548190811061256f5760405162461bcd60e51b81526004016107a590612e94565b60005b33600090815260026020526040902054811015612643573360009081526002602052604090208054849190839081106125bb57634e487b7160e01b600052603260045260246000fd5b90600052602060002090600202016000015414156126315733600090815260026020526040902080543491908390811061260557634e487b7160e01b600052603260045260246000fd5b90600052602060002090600202016001016000828254612625919061307b565b90915550612548915050565b8061263b816130fe565b915050612572565b50336000908152600260208181526040808420815180830190925286825234828401908152815460018181018455928752939095209151929093020190815591519101555050565b604051806101400160405280606081526020016060815260200160608152602001606081526020016000815260200160008152602001600081526020016000815260200160008152602001600060038111156126f757634e487b7160e01b600052602160045260246000fd5b905290565b828054612708906130c9565b90600052602060002090601f01602090048101928261272a5760008555612770565b82601f1061274357805160ff1916838001178555612770565b82800160010185558215612770579182015b82811115612770578251825591602001919060010190612755565b5061277c929150612956565b5090565b828054828255906000526020600020908101928215612770579160200282015b8281111561277057825182546001600160a01b0319166001600160a01b039091161782556020909201916001909101906127a0565b8280548282559060005260206000209081019282156127705791602002820182811115612770578251825591602001919060010190612755565b82805482825590600052602060002090601f016020900481019282156127705791602002820160005b8382111561287557835183826101000a81548160ff0219169083151502179055509260200192600101602081600001049283019260010302612838565b80156128a25782816101000a81549060ff0219169055600101602081600001049283019260010302612875565b505061277c929150612956565b60405180610200016040528060608152602001606081526020016060815260200160608152602001606081526020016000815260200160008152602001600081526020016000815260200160006001600160a01b031681526020016000600381111561292b57634e487b7160e01b600052602160045260246000fd5b8152602001600081526020016060815260200160608152602001606081526020016000151581525090565b5b8082111561277c5760008155600101612957565b80356004811061297a57600080fd5b919050565b80356002811061297a57600080fd5b600082601f83011261299e578081fd5b813567ffffffffffffffff8111156129b8576129b8613145565b6129cb601f8201601f191660200161304a565b8181528460208386010111156129df578283fd5b816020850160208301379081016020019190915292915050565b600060208284031215612a0a578081fd5b81356001600160a01b0381168114612a20578182fd5b9392505050565b60006020808385031215612a39578182fd5b823567ffffffffffffffff80821115612a50578384fd5b818501915085601f830112612a63578384fd5b813581811115612a7557612a75613145565b8060051b9150612a8684830161304a565b8181528481019084860184860187018a1015612aa0578788fd5b8795505b83861015612ac2578035835260019590950194918601918601612aa4565b5098975050505050505050565b60008060008060008060008060006101208a8c031215612aed578485fd5b893567ffffffffffffffff80821115612b04578687fd5b612b108d838e0161298e565b9a5060208c0135915080821115612b25578687fd5b612b318d838e0161298e565b995060408c0135915080821115612b46578687fd5b612b528d838e0161298e565b985060608c0135915080821115612b67578687fd5b612b738d838e0161298e565b975060808c0135915080821115612b88578687fd5b50612b958c828d0161298e565b95505060a08a0135935060c08a01359250612bb260e08b0161296b565b9150612bc16101008b0161297f565b90509295985092959850929598565b600060208284031215612be1578081fd5b5035919050565b6000815180845260208085019450808401835b83811015612c205781516001600160a01b031687529582019590820190600101612bfb565b509495945050505050565b6000815180845260208085019450808401835b83811015612c20578151151587529582019590820190600101612c3e565b6000815180845260208085019450808401835b83811015612c2057815187529582019590820190600101612c6f565b60048110612c9b57612c9b61312f565b9052565b60028110612c9b57612c9b61312f565b60008151808452815b81811015612cd457602081850181015186830182015201612cb8565b81811115612ce55782602083870101525b50601f01601f19169290920160200192915050565b602080825282518282018190526000919060409081850190868401855b82811015612d3c57815180518552860151868501529284019290850190600101612d17565b5091979650505050505050565b60006020808301818452808551808352604092508286019150828160051b870101848801865b83811015612e4257603f1989840301855281516101408151818652612d9682870182612caf565b915050888201518582038a870152612dae8282612caf565b9150508782015185820389870152612dc68282612caf565b91505060608083015186830382880152612de08382612caf565b6080858101519089015260a0808601519089015260c0808601519089015260e08086015190890152610100808601519089015261012094850151949093509150612e2e905081870184612c8b565b509588019593505090860190600101612d6f565b509098975050505050505050565b6020808252825182820181905260009190848201906040850190845b81811015612e8857835183529284019291840191600101612e6c565b50909695505050505050565b602080825260129082015271125b9d985b1a5908141c9bda9958dd08125960721b604082015260600190565b6020815260008251610200806020850152612edf610220850183612caf565b91506020850151601f1980868503016040870152612efd8483612caf565b93506040870151915080868503016060870152612f1a8483612caf565b93506060870151915080868503016080870152612f378483612caf565b935060808701519150808685030160a0870152612f548483612caf565b935060a087015160c087015260c087015160e087015260e08701519150610100828188015280880151925050610120828188015280880151925050610140612fa6818801846001600160a01b03169052565b8701519150610160612fba87820184612c8b565b8701519150610180612fce87820184612c9f565b808801519250506101a0818786030181880152612feb8584612be8565b9450808801519250506101c081878603018188015261300a8584612c5c565b9450808801519250506101e08187860301818801526130298584612c2b565b945080880151925050506130408286018215159052565b5090949350505050565b604051601f8201601f1916810167ffffffffffffffff8111828210171561307357613073613145565b604052919050565b6000821982111561308e5761308e613119565b500190565b60008160001904831182151516156130ad576130ad613119565b500290565b6000828210156130c4576130c4613119565b500390565b600181811c908216806130dd57607f821691505b6020821081141561077c57634e487b7160e01b600052602260045260246000fd5b600060001982141561311257613112613119565b5060010190565b634e487b7160e01b600052601160045260246000fd5b634e487b7160e01b600052602160045260246000fd5b634e487b7160e01b600052604160045260246000fdfea2646970667358221220a3e4eab62ae0f980f05024064cf751bbac559bdf3815ba5ef552dc44ca61aabc64736f6c63430008040033",
  "linkReferences": {},
  "deployedLinkReferences": {}
}